{
  "_format": "hh3-artifact-1",
  "contractName": "MyNFT",
  "sourceName": "contracts/MyNFT.sol",
  "abi": [
    {
      "inputs": [
        {
          "internalType": "string",
          "name": "name_",
          "type": "string"
        },
        {
          "internalType": "string",
          "name": "symbol_",
          "type": "string"
        }
      ],
      "stateMutability": "nonpayable",
      "type": "constructor"
    },
    {
      "inputs": [
        {
          "internalType": "address",
          "name": "sender",
          "type": "address"
        },
        {
          "internalType": "uint256",
          "name": "tokenId",
          "type": "uint256"
        },
        {
          "internalType": "address",
          "name": "owner",
          "type": "address"
        }
      ],
      "name": "ERC721IncorrectOwner",
      "type": "error"
    },
    {
      "inputs": [
        {
          "internalType": "address",
          "name": "operator",
          "type": "address"
        },
        {
          "internalType": "uint256",
          "name": "tokenId",
          "type": "uint256"
        }
      ],
      "name": "ERC721InsufficientApproval",
      "type": "error"
    },
    {
      "inputs": [
        {
          "internalType": "address",
          "name": "approver",
          "type": "address"
        }
      ],
      "name": "ERC721InvalidApprover",
      "type": "error"
    },
    {
      "inputs": [
        {
          "internalType": "address",
          "name": "operator",
          "type": "address"
        }
      ],
      "name": "ERC721InvalidOperator",
      "type": "error"
    },
    {
      "inputs": [
        {
          "internalType": "address",
          "name": "owner",
          "type": "address"
        }
      ],
      "name": "ERC721InvalidOwner",
      "type": "error"
    },
    {
      "inputs": [
        {
          "internalType": "address",
          "name": "receiver",
          "type": "address"
        }
      ],
      "name": "ERC721InvalidReceiver",
      "type": "error"
    },
    {
      "inputs": [
        {
          "internalType": "address",
          "name": "sender",
          "type": "address"
        }
      ],
      "name": "ERC721InvalidSender",
      "type": "error"
    },
    {
      "inputs": [
        {
          "internalType": "uint256",
          "name": "tokenId",
          "type": "uint256"
        }
      ],
      "name": "ERC721NonexistentToken",
      "type": "error"
    },
    {
      "inputs": [
        {
          "internalType": "address",
          "name": "owner",
          "type": "address"
        }
      ],
      "name": "OwnableInvalidOwner",
      "type": "error"
    },
    {
      "inputs": [
        {
          "internalType": "address",
          "name": "account",
          "type": "address"
        }
      ],
      "name": "OwnableUnauthorizedAccount",
      "type": "error"
    },
    {
      "anonymous": false,
      "inputs": [
        {
          "indexed": true,
          "internalType": "address",
          "name": "owner",
          "type": "address"
        },
        {
          "indexed": true,
          "internalType": "address",
          "name": "approved",
          "type": "address"
        },
        {
          "indexed": true,
          "internalType": "uint256",
          "name": "tokenId",
          "type": "uint256"
        }
      ],
      "name": "Approval",
      "type": "event"
    },
    {
      "anonymous": false,
      "inputs": [
        {
          "indexed": true,
          "internalType": "address",
          "name": "owner",
          "type": "address"
        },
        {
          "indexed": true,
          "internalType": "address",
          "name": "operator",
          "type": "address"
        },
        {
          "indexed": false,
          "internalType": "bool",
          "name": "approved",
          "type": "bool"
        }
      ],
      "name": "ApprovalForAll",
      "type": "event"
    },
    {
      "anonymous": false,
      "inputs": [
        {
          "indexed": true,
          "internalType": "address",
          "name": "to",
          "type": "address"
        },
        {
          "indexed": true,
          "internalType": "uint256",
          "name": "tokenId",
          "type": "uint256"
        },
        {
          "indexed": false,
          "internalType": "string",
          "name": "uri",
          "type": "string"
        }
      ],
      "name": "Minted",
      "type": "event"
    },
    {
      "anonymous": false,
      "inputs": [
        {
          "indexed": true,
          "internalType": "address",
          "name": "previousOwner",
          "type": "address"
        },
        {
          "indexed": true,
          "internalType": "address",
          "name": "newOwner",
          "type": "address"
        }
      ],
      "name": "OwnershipTransferred",
      "type": "event"
    },
    {
      "anonymous": false,
      "inputs": [
        {
          "indexed": true,
          "internalType": "address",
          "name": "from",
          "type": "address"
        },
        {
          "indexed": true,
          "internalType": "address",
          "name": "to",
          "type": "address"
        },
        {
          "indexed": true,
          "internalType": "uint256",
          "name": "tokenId",
          "type": "uint256"
        }
      ],
      "name": "Transfer",
      "type": "event"
    },
    {
      "inputs": [
        {
          "internalType": "address",
          "name": "to",
          "type": "address"
        },
        {
          "internalType": "uint256",
          "name": "tokenId",
          "type": "uint256"
        }
      ],
      "name": "approve",
      "outputs": [],
      "stateMutability": "nonpayable",
      "type": "function"
    },
    {
      "inputs": [
        {
          "internalType": "address",
          "name": "owner",
          "type": "address"
        }
      ],
      "name": "balanceOf",
      "outputs": [
        {
          "internalType": "uint256",
          "name": "",
          "type": "uint256"
        }
      ],
      "stateMutability": "view",
      "type": "function"
    },
    {
      "inputs": [
        {
          "internalType": "uint256",
          "name": "tokenId",
          "type": "uint256"
        }
      ],
      "name": "getApproved",
      "outputs": [
        {
          "internalType": "address",
          "name": "",
          "type": "address"
        }
      ],
      "stateMutability": "view",
      "type": "function"
    },
    {
      "inputs": [
        {
          "internalType": "address",
          "name": "owner",
          "type": "address"
        },
        {
          "internalType": "address",
          "name": "operator",
          "type": "address"
        }
      ],
      "name": "isApprovedForAll",
      "outputs": [
        {
          "internalType": "bool",
          "name": "",
          "type": "bool"
        }
      ],
      "stateMutability": "view",
      "type": "function"
    },
    {
      "inputs": [
        {
          "internalType": "address",
          "name": "to",
          "type": "address"
        },
        {
          "internalType": "string",
          "name": "uri",
          "type": "string"
        }
      ],
      "name": "mintTo",
      "outputs": [
        {
          "internalType": "uint256",
          "name": "",
          "type": "uint256"
        }
      ],
      "stateMutability": "nonpayable",
      "type": "function"
    },
    {
      "inputs": [],
      "name": "name",
      "outputs": [
        {
          "internalType": "string",
          "name": "",
          "type": "string"
        }
      ],
      "stateMutability": "view",
      "type": "function"
    },
    {
      "inputs": [],
      "name": "owner",
      "outputs": [
        {
          "internalType": "address",
          "name": "",
          "type": "address"
        }
      ],
      "stateMutability": "view",
      "type": "function"
    },
    {
      "inputs": [
        {
          "internalType": "uint256",
          "name": "tokenId",
          "type": "uint256"
        }
      ],
      "name": "ownerOf",
      "outputs": [
        {
          "internalType": "address",
          "name": "",
          "type": "address"
        }
      ],
      "stateMutability": "view",
      "type": "function"
    },
    {
      "inputs": [],
      "name": "renounceOwnership",
      "outputs": [],
      "stateMutability": "nonpayable",
      "type": "function"
    },
    {
      "inputs": [
        {
          "internalType": "address",
          "name": "from",
          "type": "address"
        },
        {
          "internalType": "address",
          "name": "to",
          "type": "address"
        },
        {
          "internalType": "uint256",
          "name": "tokenId",
          "type": "uint256"
        }
      ],
      "name": "safeTransferFrom",
      "outputs": [],
      "stateMutability": "nonpayable",
      "type": "function"
    },
    {
      "inputs": [
        {
          "internalType": "address",
          "name": "from",
          "type": "address"
        },
        {
          "internalType": "address",
          "name": "to",
          "type": "address"
        },
        {
          "internalType": "uint256",
          "name": "tokenId",
          "type": "uint256"
        },
        {
          "internalType": "bytes",
          "name": "data",
          "type": "bytes"
        }
      ],
      "name": "safeTransferFrom",
      "outputs": [],
      "stateMutability": "nonpayable",
      "type": "function"
    },
    {
      "inputs": [
        {
          "internalType": "address",
          "name": "operator",
          "type": "address"
        },
        {
          "internalType": "bool",
          "name": "approved",
          "type": "bool"
        }
      ],
      "name": "setApprovalForAll",
      "outputs": [],
      "stateMutability": "nonpayable",
      "type": "function"
    },
    {
      "inputs": [
        {
          "internalType": "bytes4",
          "name": "interfaceId",
          "type": "bytes4"
        }
      ],
      "name": "supportsInterface",
      "outputs": [
        {
          "internalType": "bool",
          "name": "",
          "type": "bool"
        }
      ],
      "stateMutability": "view",
      "type": "function"
    },
    {
      "inputs": [],
      "name": "symbol",
      "outputs": [
        {
          "internalType": "string",
          "name": "",
          "type": "string"
        }
      ],
      "stateMutability": "view",
      "type": "function"
    },
    {
      "inputs": [
        {
          "internalType": "uint256",
          "name": "tokenId",
          "type": "uint256"
        }
      ],
      "name": "tokenURI",
      "outputs": [
        {
          "internalType": "string",
          "name": "",
          "type": "string"
        }
      ],
      "stateMutability": "view",
      "type": "function"
    },
    {
      "inputs": [
        {
          "internalType": "address",
          "name": "from",
          "type": "address"
        },
        {
          "internalType": "address",
          "name": "to",
          "type": "address"
        },
        {
          "internalType": "uint256",
          "name": "tokenId",
          "type": "uint256"
        }
      ],
      "name": "transferFrom",
      "outputs": [],
      "stateMutability": "nonpayable",
      "type": "function"
    },
    {
      "inputs": [
        {
          "internalType": "address",
          "name": "newOwner",
          "type": "address"
        }
      ],
      "name": "transferOwnership",
      "outputs": [],
      "stateMutability": "nonpayable",
      "type": "function"
    }
  ],
  "bytecode": "0x60806040526001600755348015610014575f5ffd5b506040516114c83803806114c88339810160408190526100339161017d565b3382825f6100418382610266565b50600161004e8282610266565b5050506001600160a01b03811661007e57604051631e4fbdf760e01b81525f600482015260240160405180910390fd5b6100878161008f565b505050610320565b600680546001600160a01b038381166001600160a01b0319831681179093556040519116919082907f8be0079c531659141344cd1fd0a4f28419497f9722a3daafe3b4186f6b6457e0905f90a35050565b634e487b7160e01b5f52604160045260245ffd5b5f82601f830112610103575f5ffd5b81516001600160401b0381111561011c5761011c6100e0565b604051601f8201601f19908116603f011681016001600160401b038111828210171561014a5761014a6100e0565b604052818152838201602001851015610161575f5ffd5b8160208501602083015e5f918101602001919091529392505050565b5f5f6040838503121561018e575f5ffd5b82516001600160401b038111156101a3575f5ffd5b6101af858286016100f4565b602085015190935090506001600160401b038111156101cc575f5ffd5b6101d8858286016100f4565b9150509250929050565b600181811c908216806101f657607f821691505b60208210810361021457634e487b7160e01b5f52602260045260245ffd5b50919050565b601f82111561026157805f5260205f20601f840160051c8101602085101561023f5750805b601f840160051c820191505b8181101561025e575f815560010161024b565b50505b505050565b81516001600160401b0381111561027f5761027f6100e0565b6102938161028d84546101e2565b8461021a565b6020601f8211600181146102c5575f83156102ae5750848201515b5f19600385901b1c1916600184901b17845561025e565b5f84815260208120601f198516915b828110156102f457878501518255602094850194600190920191016102d4565b508482101561031157868401515f19600387901b60f8161c191681555b50505050600190811b01905550565b61119b8061032d5f395ff3fe608060405234801561000f575f5ffd5b5060043610610105575f3560e01c806370a082311161009e578063a22cb4651161006e578063a22cb46514610214578063b88d4fde14610227578063c87b56dd1461023a578063e985e9c51461024d578063f2fde38b14610260575f5ffd5b806370a08231146101e0578063715018a6146101f35780638da5cb5b146101fb57806395d89b411461020c575f5ffd5b8063095ea7b3116100d9578063095ea7b31461019257806323b872dd146101a757806342842e0e146101ba5780636352211e146101cd575f5ffd5b806275a3171461010957806301ffc9a71461012f57806306fdde0314610152578063081812fc14610167575b5f5ffd5b61011c610117366004610ca3565b610273565b6040519081526020015b60405180910390f35b61014261013d366004610d36565b610327565b6040519015158152602001610126565b61015a610378565b6040516101269190610d86565b61017a610175366004610d98565b610407565b6040516001600160a01b039091168152602001610126565b6101a56101a0366004610daf565b61042e565b005b6101a56101b5366004610dd7565b61043d565b6101a56101c8366004610dd7565b6104cb565b61017a6101db366004610d98565b6104ea565b61011c6101ee366004610e11565b6104f4565b6101a5610539565b6006546001600160a01b031661017a565b61015a61054c565b6101a5610222366004610e2a565b61055b565b6101a5610235366004610e77565b610566565b61015a610248366004610d98565b61057e565b61014261025b366004610f54565b610625565b6101a561026e366004610e11565b610652565b5f61027c61068f565b600780545f918261028c83610f85565b91905055905061029c85826106bc565b6102db8185858080601f0160208091040260200160405190810160405280939291908181526020018383808284375f920191909152506106d592505050565b80856001600160a01b03167fe7cd4ce7f2a465edc730269a1305e8a48bad821e8fb7e152ec413829c01a53c48686604051610317929190610fa9565b60405180910390a3949350505050565b5f6001600160e01b031982166380ac58cd60e01b148061035757506001600160e01b03198216635b5e139f60e01b145b8061037257506301ffc9a760e01b6001600160e01b03198316145b92915050565b60605f805461038690610fd7565b80601f01602080910402602001604051908101604052809291908181526020018280546103b290610fd7565b80156103fd5780601f106103d4576101008083540402835291602001916103fd565b820191905f5260205f20905b8154815290600101906020018083116103e057829003601f168201915b5050505050905090565b5f610411826106f6565b505f828152600460205260409020546001600160a01b0316610372565b61043982823361072e565b5050565b6001600160a01b03821661046b57604051633250574960e11b81525f60048201526024015b60405180910390fd5b5f61047783833361073b565b9050836001600160a01b0316816001600160a01b0316146104c5576040516364283d7b60e01b81526001600160a01b0380861660048301526024820184905282166044820152606401610462565b50505050565b6104e583838360405180602001604052805f815250610566565b505050565b5f610372826106f6565b5f6001600160a01b03821661051e576040516322718ad960e21b81525f6004820152602401610462565b506001600160a01b03165f9081526003602052604090205490565b61054161068f565b61054a5f61082d565b565b60606001805461038690610fd7565b61043933838361087e565b61057184848461043d565b6104c5338585858561091c565b6060610589826106f6565b505f82815260086020526040902080546105a290610fd7565b80601f01602080910402602001604051908101604052809291908181526020018280546105ce90610fd7565b80156106195780601f106105f057610100808354040283529160200191610619565b820191905f5260205f20905b8154815290600101906020018083116105fc57829003601f168201915b50505050509050919050565b6001600160a01b039182165f90815260056020908152604080832093909416825291909152205460ff1690565b61065a61068f565b6001600160a01b03811661068357604051631e4fbdf760e01b81525f6004820152602401610462565b61068c8161082d565b50565b6006546001600160a01b0316331461054a5760405163118cdaa760e01b8152336004820152602401610462565b610439828260405180602001604052805f815250610a44565b6106de826106f6565b505f8281526008602052604090206104e58282611053565b5f818152600260205260408120546001600160a01b03168061037257604051637e27328960e01b815260048101849052602401610462565b6104e58383836001610a5b565b5f828152600260205260408120546001600160a01b039081169083161561076757610767818486610b5f565b6001600160a01b038116156107a1576107825f855f5f610a5b565b6001600160a01b0381165f90815260036020526040902080545f190190555b6001600160a01b038516156107cf576001600160a01b0385165f908152600360205260409020805460010190555b5f8481526002602052604080822080546001600160a01b0319166001600160a01b0389811691821790925591518793918516917fddf252ad1be2c89b69c2b068fc378daa952ba7f163c4a11628f55a4df523b3ef91a4949350505050565b600680546001600160a01b038381166001600160a01b0319831681179093556040519116919082907f8be0079c531659141344cd1fd0a4f28419497f9722a3daafe3b4186f6b6457e0905f90a35050565b6001600160a01b0382166108b057604051630b61174360e31b81526001600160a01b0383166004820152602401610462565b6001600160a01b038381165f81815260056020908152604080832094871680845294825291829020805460ff191686151590811790915591519182527f17307eab39ab6107e8899845ad3d59bd9653f200f220920489ca2b5937696c31910160405180910390a3505050565b6001600160a01b0383163b15610a3d57604051630a85bd0160e11b81526001600160a01b0384169063150b7a029061095e90889088908790879060040161110e565b6020604051808303815f875af1925050508015610998575060408051601f3d908101601f191682019092526109959181019061114a565b60015b6109ff573d8080156109c5576040519150601f19603f3d011682016040523d82523d5f602084013e6109ca565b606091505b5080515f036109f757604051633250574960e11b81526001600160a01b0385166004820152602401610462565b805160208201fd5b6001600160e01b03198116630a85bd0160e11b14610a3b57604051633250574960e11b81526001600160a01b0385166004820152602401610462565b505b5050505050565b610a4e8383610bc3565b6104e5335f85858561091c565b8080610a6f57506001600160a01b03821615155b15610b30575f610a7e846106f6565b90506001600160a01b03831615801590610aaa5750826001600160a01b0316816001600160a01b031614155b8015610abd5750610abb8184610625565b155b15610ae65760405163a9fbf51f60e01b81526001600160a01b0384166004820152602401610462565b8115610b2e5783856001600160a01b0316826001600160a01b03167f8c5be1e5ebec7d5bd14f71427d1e84f3dd0314c0f7b2291e5b200ac8c7c3b92560405160405180910390a45b505b50505f90815260046020526040902080546001600160a01b0319166001600160a01b0392909216919091179055565b610b6a838383610c24565b6104e5576001600160a01b038316610b9857604051637e27328960e01b815260048101829052602401610462565b60405163177e802f60e01b81526001600160a01b038316600482015260248101829052604401610462565b6001600160a01b038216610bec57604051633250574960e11b81525f6004820152602401610462565b5f610bf883835f61073b565b90506001600160a01b038116156104e5576040516339e3563760e11b81525f6004820152602401610462565b5f6001600160a01b03831615801590610c805750826001600160a01b0316846001600160a01b03161480610c5d5750610c5d8484610625565b80610c8057505f828152600460205260409020546001600160a01b038481169116145b949350505050565b80356001600160a01b0381168114610c9e575f5ffd5b919050565b5f5f5f60408486031215610cb5575f5ffd5b610cbe84610c88565b9250602084013567ffffffffffffffff811115610cd9575f5ffd5b8401601f81018613610ce9575f5ffd5b803567ffffffffffffffff811115610cff575f5ffd5b866020828401011115610d10575f5ffd5b939660209190910195509293505050565b6001600160e01b03198116811461068c575f5ffd5b5f60208284031215610d46575f5ffd5b8135610d5181610d21565b9392505050565b5f81518084528060208401602086015e5f602082860101526020601f19601f83011685010191505092915050565b602081525f610d516020830184610d58565b5f60208284031215610da8575f5ffd5b5035919050565b5f5f60408385031215610dc0575f5ffd5b610dc983610c88565b946020939093013593505050565b5f5f5f60608486031215610de9575f5ffd5b610df284610c88565b9250610e0060208501610c88565b929592945050506040919091013590565b5f60208284031215610e21575f5ffd5b610d5182610c88565b5f5f60408385031215610e3b575f5ffd5b610e4483610c88565b915060208301358015158114610e58575f5ffd5b809150509250929050565b634e487b7160e01b5f52604160045260245ffd5b5f5f5f5f60808587031215610e8a575f5ffd5b610e9385610c88565b9350610ea160208601610c88565b925060408501359150606085013567ffffffffffffffff811115610ec3575f5ffd5b8501601f81018713610ed3575f5ffd5b803567ffffffffffffffff811115610eed57610eed610e63565b604051601f8201601f19908116603f0116810167ffffffffffffffff81118282101715610f1c57610f1c610e63565b604052818152828201602001891015610f33575f5ffd5b816020840160208301375f6020838301015280935050505092959194509250565b5f5f60408385031215610f65575f5ffd5b610f6e83610c88565b9150610f7c60208401610c88565b90509250929050565b5f60018201610fa257634e487b7160e01b5f52601160045260245ffd5b5060010190565b60208152816020820152818360408301375f818301604090810191909152601f909201601f19160101919050565b600181811c90821680610feb57607f821691505b60208210810361100957634e487b7160e01b5f52602260045260245ffd5b50919050565b601f8211156104e557805f5260205f20601f840160051c810160208510156110345750805b601f840160051c820191505b81811015610a3d575f8155600101611040565b815167ffffffffffffffff81111561106d5761106d610e63565b6110818161107b8454610fd7565b8461100f565b6020601f8211600181146110b3575f831561109c5750848201515b5f19600385901b1c1916600184901b178455610a3d565b5f84815260208120601f198516915b828110156110e257878501518255602094850194600190920191016110c2565b50848210156110ff57868401515f19600387901b60f8161c191681555b50505050600190811b01905550565b6001600160a01b03858116825284166020820152604081018390526080606082018190525f9061114090830184610d58565b9695505050505050565b5f6020828403121561115a575f5ffd5b8151610d5181610d2156fea2646970667358221220ea78a43586081feafcad9f2c49117a8448520873d39612fc637c6df9cb96ca1b64736f6c634300081e0033",
  "linkReferences": {},
  "deployedLinkReferences": {},
  "immutableReferences": {},
  "inputSourceName": "project/contracts/MyNFT.sol",
  "buildInfoId": "solc-0_8_30-de584084bdf4fe86a1628a8cd0a05bcc71a0c7f2"
}